:020000040000FA
:030000000200DB20
:10007B0002050200000080FB12010BB90003020015
:10008B00C5E4900001780579018002F0A3D8FCD972
:10009B00FA900005AA82AB8390010E784F7902800B
:1000AB0015E493A3AC82AD838A828B83F0A3AA82DF
:1000BB00AB838C828D83D8E9D9E775820175830B6D
:1000CB0074001200ED75827E75830074001200EDD2
:1000DB0075D0007581BF751080759F0075931E02DA
:1000EB000083C09FF59FE473D09F22D083D082C042
:1000FB009FE493C0E0740193C0E0740293F59F22D8
:10010B007901220304F8FEFFFFFFF8E0000080F006
:10011B00FCFFFFFCF00000000000000000000000EE
:10012B000000000000031F3F3F3F7FFFFEFEFF7FED
:10013B007F3F1F07030000000000000000000000CD
:10014B000000000000F0FCFEFEFFFFFF3F7FFFFF03
:10015B00FEFEFCF8E00000000000000000000000C4
:10016B000000000000030F1F7F7F0F010000031F23
:10017B003F7F0F070100000000000000000000009F
:10018B000000000000040C0E0E0E1F3F3F7FFFFE11
:10019B00FEFEFCF8E0000000000000000000000084
:1001AB000000000000081C1C7C7CFCFEFEFEFF7F98
:1001BB003F3F1F070300000000000000000000008D
:1001CB000000000000E0F0F8FCFE7F7F7F3F3F3F28
:1001DB001F1E0C08000000000000000000000000C3
:1001EB00000000000001071F1F3F3F3F7E7E7C7C0D
:1001FB003C1C1C0800000000000000000000000078
:10020B0000000000000000C0F0F0F8F8F8F0F0E09B
:10021B00C000000000000000000000000000000013
:10022B000000000000000003070F1F1F1F1F0F0718
:10023B0001000000000000000000000000000000B2
:10024B000000000000010000006D4EC64139300077
:10025B00001200F60B0A001200F69E0A001200F6BE
:10026B00D206001200F6DD06001200F6E6060012BA
:10027B0000F6ED06001200F61C07001200F645070B
:10028B00001200F66E07001200F68107001200F64E
:10029B00D007001200F62708001200F6DC08001247
:1002AB0000F6240B00080808EAC0E0EBC0E086F07B
:1002BB00E7A4FA180986F0E7A42AFA180986F0E7EA
:1002CB00A42AFA180986F0E7A42AFA1986F0E7A4FB
:1002DB00FBE5F02AFA190886F0E7A42BFBE5F03AC8
:1002EB00FA190886F0E7A42BFBE5F03AFA1818097F
:1002FB0086F0E7A4C5F02BFBE43AFA1908E7C5F042
:10030B00C6A426F6E5F03BFBE43AFA1886F0E7A420
:10031B00F6E5F00826F6E43B08F6E43A08F6D0E0FA
:10032B00FBD0E0FA226016080808C6C313C618C62D
:10033B0013C618C613C618C613C6D5E0EA22E026A4
:10034B00F608A3E036F608A3E036F608A3E036F687
:10035B0022E0F608A3E0F608A3E0F608A3E0F622F5
:10036B00E6F008A3E6F008A3E6F008A3E6F022C344
:10037B00E498F8E499F91203BB8026C3E49AFAE4F3
:10038B009BFBE920E7E91203BBE498F8E499F92217
:10039B00C3E498F8E499F91203BBE498F8E499F9EB
:1003AB00C3E49AFAE49BFB22EB20E7CFE920E7E0DA
:1003BB00B90010BB0008E88AF084F8AAF022E4FB2D
:1003CB00C8FA22EB70227B10C833C8C933C933502B
:1003DB0007C39AC3DBF280069A50012ADBEAC833C3
:1003EB00F4C8C933F4C9FA2275F008E4C833C8C994
:1003FB0033C933C99AC99B5004C92AC93BD5F0EC00
:10040B00FBC833F4C8E4C9FA22D083D0822510F894
:10041B00C510C39824FACEF208E520F208E9C0E033
:10042B007908E709F208DEFAD0E0F9EFF208D0E03C
:10043B00FFD0E0FED0E0F208EEF208EFF208E47332
:10044B00A810E2FE08E208F520E9C0E07908E2080E
:10045B00F709DFFAE208FFD0E0F9E208C0E0E208B2
:10046B00C0E0E208C0E088100200F3C0D0C0F08802
:10047B00F02510F8C510C39824F3C0E0E5F0F2089E
:10048B00E9F208EAF208EBF208D0E0FB7908E70999
:10049B00F208DBFAE582F208E583F208D0E0F20815
:1004AB00D0E0F208E520F208ECF208EDF208EEF2EB
:1004BB0008EFF222A810E208C0E0E208C0E0E20870
:1004CB00FAE208FB7908E208F709DFFAE208F5829D
:1004DB00E208F583E208F5F0E208F5D0E208F52032
:1004EB00E208FCE208FDE208FEE208FF8810D0E01B
:1004FB00F9D0E0F8D0E032C0E074F1120476E58A6E
:10050B00A2E250249000017400F09000027400F0FD
:10051B009000057403F09000037400F090000474D5
:10052B0000F012025C538AFBE58AA2E450631202CC
:10053B00989000057403F07A047B001202628A081B
:10054B008B09E50845096007900001E02410F09045
:10055B000005E0FB900002E0FA900001E0F91202C6
:10056B009E900006E0FB900004E0FA900003E0F997
:10057B0012029E900001E0F8900003E068700F906B
:10058B000002E0F8900004E068700312025C538AEA
:10059B00EFE58AA2E550571202989000057401F01E
:1005AB007A027B001202628A088B09E50845096012
:1005BB0007900002E02402F0900005E0FB9000029F
:1005CB00E0FA900001E0F912029E900006E0FB9029
:1005DB000004E0FA900003E0F912029E900002E0A2
:1005EB00F8900004E068700312025C538ADFE58A1E
:1005FB00A2E750631202989000057402F07A037B15
:10060B00001202628A088B09E50845096007900011
:10061B0001E024F0F0900005E0FB900002E0FA907E
:10062B000001E0F912029E900006E0FB900004E04E
:10063B00FA900003E0F912029E900001E0F890009E
:10064B0003E068700F900002E0F8900004E068701F
:10065B000312025C538A7FE58AA2E650631202986A
:10066B009000057400F07A017B001202628A088BFD
:10067B0009E50845096007900002E024FEF09000B0
:10068B0005E0FB900002E0FA900001E0F912029EF7
:10069B00900006E0FB900004E0FA900003E0F912F2
:1006AB00029E900001E0F8900003E068700F90004C
:1006BB0002E0F8900004E068700312025C538ABFFA
:1006CB00C2EB7F020204BFD280D281C281C2800200
:1006DB0000F3D280C281D2810200F3D280C28002A9
:1006EB0000F3C008E9FAC2807800800BC281EAC32C
:1006FB0033FAD280C28008E8C39408500F8A08539B
:10070B0008807480650870E4D28180E2D008020012
:10071B00F3EEC0E0E9FE120268797812027A120257
:10072B0074790012027A120274EEF912027A120232
:10073B007412026ED0E0FE0200F3EEC0E0E9FE128E
:10074B000268797812027A120274794012027A12D4
:10075B000274EEF912027A12027412026ED0E0FEEB
:10076B000200F3EC4D6007EAF91202868005EAF904
:10077B001202800200F374F8120414E9FFEAFE7C03
:10078B00007D008E08750900E50824B0FAE50934F0
:10079B0000FB12028C7C007D00EFC4540FF8790033
:1007AB004410FAE94400FB12028C7C007D008F0898
:1007BB00750900E508540FFAE5095400FB12028C89
:1007CB007F0202044B74F81204147E0080137C0128
:1007DB007D007A007B0012028C0FEFC3948040EEF9
:1007EB000EEEC3940850307C007D008E0875090016
:1007FB00E50824B0FAE5093400FB12028C7C007D7D
:10080B00007A007B0012028C7C007D007A107B004A
:10081B0012028C7F0080C37F0202044B74F512041A
:10082B0014890C8A098B087E00AA09A90C12029262
:10083B007F00803F7C017D008F0A750B00E508A8C7
:10084B00087900E875F040A4C8AAF075F000A42A56
:10085B00FA75F040E9A42AF9740728F8740039F9FD
:10086B00E8250AF582E9350BF583E0FA7B001202E5
:10087B008C0E0FEFC3941040BB74012509FAA90C21
:10088B001202927F00803F7C017D00E508A8087969
:10089B0000E875F040A4C8AAF075F000A42AFA7518
:1008AB00F040E9A42AF98F0A750B007427250AFA80
:1008BB007400350BFBEA28F582EB39F583E0FA7B04
:1008CB000012028C0E0FEFC3941040BB7F05020485
:1008DB004B7C007D007AAE7B0012028C7C007D008D
:1008EB007A007B0012028C7C007D007A107B001258
:1008FB00028C7C007D007A407B0012028C7C007D98
:10090B00007AB07B0012028C7C007D007A817B0028
:10091B0012028C7C007D007AFF7B0012028C7C0023
:10092B007D007AA17B0012028C7C007D007AA67B75
:10093B000012028C7C007D007AA87B0012028C7C5A
:10094B00007D007A3F7B0012028C7C007D007AC810
:10095B007B0012028C7C007D007AD37B0012028C10
:10096B007C007D007A007B0012028C7C007D007A7B
:10097B00D57B0012028C7C007D007A807B001202FA
:10098B008C7C007D007AD87B0012028C7C007D0071
:10099B007A057B0012028C7C007D007AD97B0012D9
:1009AB00028C7C007D007AF17B0012028C7C007D36
:1009BB00007ADA7B0012028C7C007D007A127B00BD
:1009CB0012028C7C007D007ADB7B0012028C7C0097
:1009DB007D007A307B0012028C7C007D007A8D7B4F
:1009EB000012028C7C007D007A147B0012028C7C3E
:1009FB00007D007AAF7B0012028C1202980200F38A
:100A0B00900001E0F8900003E0687069900002E04C
:100A1B00F8900004E068705D120298900005E0FB0E
:100A2B00900002E0FA900001E0F912029E75F010BE
:100A3B00C0F01202AAEAF8EBF97A087B001203B3B2
:100A4B00EAD0F0A4900003F075F002C0F01202AAF5
:100A5B00EAF8EBF97A047B001203B3EAD0F0A49026
:100A6B000004F0900006E0FB900004E0FA90000315
:100A7B00E0F912029E900001E0F8900003E068702C
:100A8B000F900002E0F8900004E068700312025C23
:100A9B000200F374016A700374006B700C90000217
:100AAB00E0704C7A007B00804A74026A7003740019
:100ABB006B700E900002E0640670347A007B00804D
:100ACB003274036A700374006B700C900001E07059
:100ADB001E7A007B00801C74046A700374006B70B8
:100AEB000E900001E0647070067A007B0080047A3F
:100AFB00017B000200F353F40B53FE0B439A10439C
:100B0B008DF4438C06D2AF538A0B43FD031202982C
:100B1B001202A412025C0200F374F212041490018C
:100B2B0047780812035C90014B780C12035C780831
:100B3B00790C1202B090014F7808120349900147CB
:100B4B00780812036B900147780812035C741078D5
:100B5B0008120330AA08E509547FFB7F0802044BF7
:04000005000000DB1C
:00000001FF
